:1001C100021300000B0830313233343536373839F9
:0C01D100000915564F4C544147453A00B8
:0A019700F8E6FF1202367F057E0035
:1001A100E4FDFCC3ED9FEC9E5015E4FBFA0BBB0094
:0F01B100010AEB64784A70F50DBD00010C80E483
:0101C000221C
:1001F800C2B6D2B612019DC2B630B7FDD2B2AFA018
:080208007513008F14C2B2222D
:10022400A907C2B3C2B4C2B512019D8990D2B5C2A6
:02023400B522F1
:10023600A907D2B3C2B4C2B512019D8990D2B5C284
:02024600B522DF
:100210007F381202247F0C1202247F061202247FF0
:0402200001020224B1
:10000E00E4F51EF51FF520AE13AF14FC7D6412014E
:10001E00307D331201428E138F147C007D641201E9
:10002E00428F1EAE13AF147C007D641201427E001F
:10003E007F0ACFCDCFCECCCE1201428F1FAE13AFE3
:10004E00147C007D0A1201428D207F801202241240
:10005E00019DE4F583F582AF8274152F120197A3EB
:10006E00E5826408458370EF7FC812022412019D59
:10007E007408251E1201977F2E12019A7408251FEF
:10008E00120197740825201201977F561202367FAF
:06009E00057E000201A135
:1001DE00758901758A06758CFFD2AFD2A9D28C12A1
:0A01EE0002101201F812000E80F852
:03000B00020248A6
:09024800758A06758CFFB2823242
:030000000200A457
:0C00A400787FE4F6D8FD7581200200EBA7
:10013000EF8DF0A4A8F0CF8CF0A428CE8DF0A42EE3
:02014000FE229D
:10014200BC000BBE0029EF8DF084FFADF022E4CCA1
:10015200F875F008EF2FFFEE33FEEC33FCEE9DEC6A
:10016200984005FCEE9DFE0FD5F0E9E4CEFD22EDB0
:10017200F8F5F0EE8420D21CFEADF075F008EF2FFA
:10018200FFED33FD4007985006D5F0F222C398FDEB
:050192000FD5F0EA2288
:1000B0000201DEE493A3F8E493A34003F68001F287
:1000C00008DFF48029E493A3F85407240CC8C33351
:1000D000C4540F4420C8834004F456800146F6DF20
:1000E000E4800B01020408102040809001C1E47EEE
:1000F000019360BCA3FF543F30E509541FFEE49315
:10010000A360010ECF54C025E060A840B8E493A3DB
:10011000FAE493A3F8E493A3C8C582C8CAC583CA06
:10012000F0A3C8C582C8CAC583CADFE9DEE780BEBE
:0101DD000021
:00000001FF
